{"abi":[{"type":"constructor","inputs":[],"stateMutability":"nonpayable"},{"type":"function","name":"balanceOfContract","inputs":[],"outputs":[{"name":"","type":"uint256","internalType":"uint256"}],"stateMutability":"view"},{"type":"function","name":"deposit","inputs":[],"outputs":[],"stateMutability":"payable"},{"type":"function","name":"owner","inputs":[],"outputs":[{"name":"","type":"address","internalType":"address payable"}],"stateMutability":"view"},{"type":"function","name":"send","inputs":[{"name":"to","type":"address","internalType":"address payable"},{"name":"amount","type":"uint256","internalType":"uint256"}],"outputs":[],"stateMutability":"nonpayable"}],"bytecode":{"object":"0x6080604052348015600e575f5ffd5b50335f5f6101000a81548173ffffffffffffffffffffffffffffffffffffffff021916908373ffffffffffffffffffffffffffffffffffffffff1602179055506103988061005b5f395ff3fe60806040526004361061003e575f3560e01c80638da5cb5b14610042578063d0679d341461006c578063d0e30db014610094578063e6c7c4561461009e575b5f5ffd5b34801561004d575f5ffd5b506100566100c8565b604051610063919061020a565b60405180910390f35b348015610077575f5ffd5b50610092600480360381019061008d9190610284565b6100ec565b005b61009c6101c2565b005b3480156100a9575f5ffd5b506100b26101c4565b6040516100bf91906102d1565b60405180910390f35b5f5f9054906101000a900473ffffffffffffffffffffffffffffffffffffffff1681565b5f5f9054906101000a900473ffffffffffffffffffffffffffffffffffffffff1673ffffffffffffffffffffffffffffffffffffffff163373ffffffffffffffffffffffffffffffffffffffff161461017a576040517f08c379a000000000000000000000000000000000000000000000000000000000815260040161017190610344565b60405180910390fd5b8173ffffffffffffffffffffffffffffffffffffffff166108fc8290811502906040515f60405180830381858888f193505050501580156101bd573d5f5f3e3d5ffd5b505050565b565b5f47905090565b5f73ffffffffffffffffffffffffffffffffffffffff82169050919050565b5f6101f4826101cb565b9050919050565b610204816101ea565b82525050565b5f60208201905061021d5f8301846101fb565b92915050565b5f5ffd5b610230816101ea565b811461023a575f5ffd5b50565b5f8135905061024b81610227565b92915050565b5f819050919050565b61026381610251565b811461026d575f5ffd5b50565b5f8135905061027e8161025a565b92915050565b5f5f6040838503121561029a57610299610223565b5b5f6102a78582860161023d565b92505060206102b885828601610270565b9150509250929050565b6102cb81610251565b82525050565b5f6020820190506102e45f8301846102c2565b92915050565b5f82825260208201905092915050565b7f53656e646572206973206e6f74206f776e6572000000000000000000000000005f82015250565b5f61032e6013836102ea565b9150610339826102fa565b602082019050919050565b5f6020820190508181035f83015261035b81610322565b905091905056fea264697066735822122060676e47f9a256364d45cc6d956cd8960d2bd0605fa7d875a0f652f59353185264736f6c634300081c0033","linkReferences":{}},"methodIdentifiers":{"balanceOfContract()":"e6c7c456","deposit()":"d0e30db0","owner()":"8da5cb5b","send(address,uint256)":"d0679d34"},"id":18}